:020000040800F2
:10000000DC080020A90300082504000825040008D6
:10001000250400082504000825040008000000004D
:10002000000000000000000000000000250400089F
:10003000250400080000000025040008250400082D
:1000400025040008250400082504000825040008EC
:1000500025040008250400082504000825040008DC
:1000600025040008250400082504000815030008DD
:10007000250400082504000825040008DD06000802
:1000800025040008250400082504000825040008AC
:10009000250400082504000825040008250400089C
:1000A000250400082504000825040008250400088C
:1000B000310700082504000825040008250400086D
:1000C000250400082504000825040008250400086C
:1000D000250400082504000825040008250400085C
:1000E000250400082504000825040008250400084C
:1000F0002504000825040008250400080903000859
:100100002504000825040008250400082103000830
:10011000250400082504000825040008250400081B
:10012000250400082504000825040008250400080B
:1001300025040008250400082504000825040008FB
:1001400025040008250400082504000825040008EB
:1001500025040008250400082504000825040008DB
:1001600025040008250400082504000825040008CB
:1001700025040008250400082504000825040008BB
:10018000250400082504000880B500AF40F21403E0
:10019000C2F200031A6840F22003C2F200031B6897
:1001A0001046194601F090F80346002B00F0AB8092
:1001B00040F20403C2F200031B68002B00F08180B0
:1001C00000BF40F21403C2F200031B68184601F09E
:1001D0005FF80346002BF4D140F21403C2F200038F
:1001E0001A6840F22003C2F200031B681046194649
:1001F00001F0ACF840F24C03C2F200031B681A464F
:1002000040F28C03C2F200039A6040F20403C2F28F
:1002100000031A684FF6FF739A4228BF1A4640F24D
:100220008C03C2F200031A6140F21403C2F200030D
:100230001B68184640F28C01C2F2000100F0A6FFD4
:1002400040F21403C2F200031B6818464FF001018C
:1002500000F0F4FF40F24C03C2F200031A6840F2CF
:100260000403C2F2000319684FF6FF73994238BFC6
:100270000B464FEA4303D21840F24C03C2F200038C
:100280001A6040F20403C2F200031A6840F2040349
:10029000C2F2000319684FF6FF73994238BF0B464C
:1002A000D21A40F20403C2F200031A6040F21403AF
:1002B000C2F200031B6818464FF0010100F0BEFFB8
:1002C00021E040F21403C2F200031B6818464FF00D
:1002D000000100F0B3FF40F21403C2F200031A68F9
:1002E00040F22003C2F200031B681046194601F0D9
:1002F0002DF840F24C03C2F200031B6818464FF081
:10030000000101F08DF880BD80B500AFFFF73CFF24
:1003100080BD00BF80B500AFFFF736FF80BD00BFD6
:1003200080B500AF4FF47050C4F200004FF00201EE
:1003300001F062F90346002B18D040F20C03C2F220
:1003400000031B68022B07D101F074F803464FF03D
:100350000400194600F00CF801F06CF803464FF465
:100360007050C4F20000194601F014F980BD00BFBE
:1003700080B485B000AF78600B467B804FF00003FF
:10038000FB604FF4E843C4F20003FB60FA687B684B
:10039000D31803F10803FB60FB687A881A6007F141
:1003A0001407BD4680BC704780B582B000AF41F6EF
:1003B000BC03C0F600037B6040F20003C2F20003FE
:1003C0003B600BE07B681A683B681A603B6803F18E
:1003D00004033B607B6803F104037B603A6840F2EE
:1003E0004803C2F200039A42ECD30B480B494FF08A
:1003F00000028842B8BF40F8042BFFF6FAAFDFF8DE
:100400002000016841F47001016000F049F807F133
:100410000807BD4680BD000048000020E000002025
:1004200088ED00E080B400AFFEE700BF80B582B089
:1004300000AF4FF008004FF0010100F087F84FF4D3
:1004400070433B604FF001033B714FF00003BB7101
:100450004FF00103FB714FF000037B713B464FF4FB
:100460004060C4F20200194600F098FB07F108074B
:10047000BD4680BD80B483B000AF4FF000037B6009
:1004800003E07B6803F101037B607A6842F20F733B
:100490009A42F6D907F10C07BD4680BC704700BFF1
:1004A00080B582B000AF00F09DFC00F0F3FCFFF7D8
:1004B000BDFF4FF00003FB8000F0F6FA4FF00A009A
:1004C00000F02AFB00F0EAF8FFF7D4FFFB889BB2AC
:1004D00003F101039BB2FB8000F0E0F8FFF7CAFFD5
:1004E000FB889BB203F003034FF4805202FA03F33C
:1004F0009BB24FF44060C4F20200194600F00CFCBD
:10050000E4E700BF80B485B000AF786039604FF099
:100510000003FB604FF46053C4F202039B68FB606E
:10052000FB6823F0EC63FB607A683B681343FA686E
:100530001343FB604FF46053C4F20203FA689A60FD
:1005400007F11407BD4680BC704700BF80B483B07C
:1005500000AF78600B46FB70FB78002B0CD04FF49B
:100560006053C4F202034FF46052C4F20202116BF2
:100570007A680A431A630DE04FF46053C4F2020331
:100580004FF46052C4F20202116B7A686FEA020201
:100590000A401A6307F10C07BD4680BC704700BFD4
:1005A00080B483B000AF78600B46FB70FB78002B03
:1005B0000CD04FF46053C4F202034FF46052C4F203
:1005C0000202116C7A680A431A640DE04FF460531A
:1005D000C4F202034FF46052C4F20202116C7A6852
:1005E0006FEA02020A401A6407F10C07BD4680BC9C
:1005F000704700BF80B483B000AF78600B46FB70DB
:10060000FB78002B0CD04FF46053C4F202034FF47C
:100610006052C4F20202116A7A680A431A620DE05B
:100620004FF46053C4F202034FF46052C4F202026A
:10063000116A7A686FEA02020A401A6207F10C072F
:10064000BD4680BC704700BF80B483B000AF786007
:100650000B46FB70FB78002B0CD04FF46053C4F2B8
:1006600002034FF46052C4F20202516A7A680A43EC
:100670005A620DE04FF46053C4F202034FF460522B
:10068000C4F20202516A7A686FEA02020A405A62B0
:1006900007F10C07BD4680BC704700BF80B400AFB7
:1006A00040F24A03C2F200034FF001021A70BD4645
:1006B00080BC704780B500AF46F27000C4F2020003
:1006C0004FF0180100F0D6FD46F27000C4F20200AF
:1006D0004FF0010100F0B2FD80BD00BF80B500AF5A
:1006E00046F27000C4F202004FF02001C2F2000195
:1006F00000F02CFE40F24803C2F200034FF001026A
:100700001A7040F24A03C2F200034FF000021A705E
:1007100000BF46F27000C4F202004FF02001C2F2A6
:10072000000100F0D1FD0346002BF2D180BD00BFD7
:1007300080B500AF4FF080404FF0010101F0ACF800
:100740004FF00000C4F202004FF0020100F0C8FABE
:1007500040F24803C2F200031B78DBB2002B16D034
:100760004FF00000C4F202004FF0080100F0B8FAA8
:100770004FF00000C4F202004FF0080100F0BEFA92
:1007800040F24803C2F200034FF000021A704FF02B
:100790000000C4F202004FF0020100F0AFFA40F294
:1007A0004A03C2F200031B78DBB2002B01D0FFF733
:1007B00081FF80BD80B582B000AF4FF001004FF0E7
:1007C0000101FFF7C3FE4FF001033B714FF000033F
:1007D0007B714FF00003BB714FF00003FB714FF0D2
:1007E0001E033B603B464FF00000C4F20200194676
:1007F00000F0D4F907F10807BD4680BD80B584B08C
:1008000000AF4FF001004FF00101FFF7C9FE4FF0BC
:100810000203BB804FF00003FB8040F6FF73BB6018
:100820004FF00003BB8107F104034FF080401946ED
:1008300000F074FF4FF080404FF001014FF00102D3
:1008400001F006F84FF01C033B704FF00103FB7002
:100850004FF001037B704FF00003BB703B4618461E
:1008600000F0EAFE4FF080404FF0010100F0D0FFB1
:1008700007F11007BD4680BD80B582B000AF4FF0D4
:1008800001004FF00101FFF761FE4FF002033B71E1
:100890004FF001037B714FF00003BB714FF0000379
:1008A000FB714FF00000C4F202004FF008014FF05E
:1008B000000200F043FA4FF480733B603B464FF078
:1008C0000000C4F20200194600F068F94FF4C000BD
:1008D0004FF0C061FFF716FE07F10807BD4680BD67
:1008E00080B588B000AF4FF480404FF00101FFF7B2
:1008F00057FE4FF002004FF00101FFF727FE4FF4C3
:1009000000104FF00101FFF721FE4FF48060C4F2A8
:1009100002004FF00D014FF0050200F00FFA4FF406
:100920008060C4F202004FF00F014FF0050200F0AA
:1009300005FA4FF002033B774FF002037B774FF04D
:100940000003BB774FF00103FB774FF42043BB61FB
:1009500007F118034FF48060C4F20200194600F05A
:100960001DF94FF46050C4F2000000F06BFD4FF42D
:100970004050C4F2010000F065FD4FF44043BB80DD
:100980004FF000033B814FF000037B814FF00003E9
:10099000BB814FF40073FB814FF000033B824FF0AB
:1009A00000037B824FF48273FB804FF00703BB820E
:1009B00007F104034FF46050C4F20000194600F040
:1009C00085FD4FF46050C4F200004FF002014FF07B
:1009D000010200F0EDFD4FF46050C4F200004FF052
:1009E000010100F0B7FD07F12007BD4680BD00BF43
:1009F00080B590B000AF4FF000037B6043F60C036E
:100A0000C4F20003BB6040F2C803C2F20003FB6003
:100A10004FF040033B614FF018037B614FF0000340
:100A2000BB614FF48063FB614FF000033B624FF00A
:100A300000037B624FF00003BB624FF40033FB62A4
:100A40004FF000033B634FF001037B634FF400035F
:100A5000BB634FF00003FB6307F1040346F2700031
:100A6000C4F20200194600F091FB46F27000C4F295
:100A700002004FF010014FF0010200F097FC4FF020
:100A80000F033B704FF000037B704FF00003BB700F
:100A90004FF00103FB703B46184600F0CDFD07F117
:100AA0004007BD4680BD00BF80B500AFFFF782FEA6
:100AB0004FF00000C4F202004FF0020100F010F904
:100AC0004FF00000C4F202004FF0040100F008F9FA
:100AD0004FF00000C4F202004FF0080100F00EF9E0
:100AE0004FF00000C4F202004FF0100100F006F9D0
:100AF0004FF00000C4F202004FF0040100F0FEF8D5
:100B0000FFF7EEFEFFF774FFFFF7D4FDFFF7B4FE2B
:100B1000FFF774FE80BD00BF80B485B000AF034610
:100B2000FB80FB884FEA13139BB2BB73FB88DBB2DD
:100B30004FEA0313DAB2BB7B4FEA1313DBB2134362
:100B40007B734FF00003FB73FA7B40F2C803C2F2E1
:100B50000003B97B9954FB7B03F10103FB73FA7B20
:100B600040F2C803C2F20003797B9954FB7B03F186
:100B70000103FB73FA7BFB88D9B240F2C803C2F2CF
:100B800000039954FB7B03F10103FB73FB7B172BE1
:100B9000DAD907F11407BD4680BC704780B487B02E
:100BA00000AF786039604FF000037B614FF00003C5
:100BB0003B614FF00003FB604FF000037B6186E078
:100BC0007B694FF0010202FA03F33B613B681A684C
:100BD0003B691340FB60FA683B699A4273D17B68BA
:100BE0001A687B694FEA43034FF0030101FA03F3EC
:100BF0006FEA03031A407B681A607B681A683B68D7
:100C00001B7919467B694FEA430301FA03F31A4340
:100C10007B681A603B681B79012B03D03B681B790A
:100C2000022B34D17B689A687B694FEA43034FF00B
:100C3000030101FA03F36FEA03031A407B689A6029
:100C40007B689A683B685B7919467B694FEA430386
:100C500001FA03F31A437B689A607B685A687B69E0
:100C60009BB24FF0010101FA03F36FEA03031A404C
:100C70007B685A607B685A683B689B7919467B6938
:100C80009BB201FA03F39BB21A437B685A607B68FC
:100C9000DA687B699BB24FEA43034FF0030101FA24
:100CA00003F36FEA03031A407B68DA607B68DA6853
:100CB0003B68DB7919467B694FEA430301FA03F38A
:100CC0001A437B68DA607B6903F101037B617B690E
:100CD0000F2B7FF675AF07F11C07BD4680BC704730
:100CE00080B483B000AF78600B467B807B687A88E5
:100CF0001A8307F10C07BD4680BC704780B483B0EF
:100D000000AF78600B467B807B687A885A8307F156
:100D10000C07BD4680BC704780B483B000AF7860DC
:100D20000B467B807B685A697B885A407B685A6196
:100D300007F10C07BD4680BC704700BF80B485B08A
:100D400000AF786013460A467A807B704FF000034C
:100D5000FB604FF00003BB607A787B8803F00703E9
:100D60004FEA830302FA03F3FB607B884FEAD30365
:100D70009BB21A467B884FEAD3039BB219467B6825
:100D800001F1080153F821107B8803F007034FEAB3
:100D900083034FF00F0000FA03F36FEA03031940D7
:100DA0007B6802F1080243F822107B884FEAD303E4
:100DB0009BB21A467B6802F1080253F82220FB68B6
:100DC0001343BB607B884FEAD3039BB21A467B6810
:100DD00002F10802B96843F8221007F11407BD4672
:100DE00080BC704780B500AF4FF46D43CEF2000376
:100DF0004FF46D42CEF20002D2F8882042F4700225
:100E0000C3F888204FF46053C4F202034FF46052D9
:100E1000C4F20202126842F001021A604FF46053F9
:100E2000C4F202034FF000029A604FF46053C4F220
:100E300002034FF46052C4F20202126822F084727C
:100E400022F480321A604FF46053C4F2020343F27A
:100E50001002C2F200425A604FF46053C4F202031F
:100E60004FF46052C4F20202126822F480221A6027
:100E70004FF46053C4F202034FF00002DA6000F056
:100E8000C1F84FF46D43CEF200034FF000629A6058
:100E900080BD00BF80B487B000AF4FF000033B615E
:100EA0004FF000037B614FF00203FB604FF0000343
:100EB000BB604FF002037B604FF46053C4F2020347
:100EC0009B6803F00C033B613B69042B0DD0082B9E
:100ED00015D0002B69D140F23403C2F200034FF465
:100EE0001052C0F2F4021A6069E040F23403C2F218
:100EF000000347F64002C0F27D121A605FE04FF433
:100F00006053C4F202035B6803F480034FEA935317
:100F1000BB604FF46053C4F202035B6803F03F030D
:100F20007B60BB68002B14D047F64003C0F27D13F2
:100F30007A68B3FBF2F24FF46053C4F202035968CB
:100F400047F6C0730B404FEA931303FB02F37B6138
:100F500013E04FF41053C0F2F4037A68B3FBF2F2DB
:100F60004FF46053C4F20203596847F6C0730B4054
:100F70004FEA931303FB02F37B614FF46053C4F217
:100F800002035B6803F440334FEA134303F10103A8
:100F90004FEA4303FB607A69FB68B2FBF3F240F26D
:100FA0003403C2F200031A6009E040F23403C2F2D3
:100FB00000034FF41052C0F2F4021A6000BF4FF465
:100FC0006053C4F202039B6803F0F0034FEA13126C
:100FD00040F23803C2F200039B5CDBB23B6140F29B
:100FE0003403C2F200031A683B6922FA03F240F2AA
:100FF0003403C2F200031A6007F11C07BD4680BC2F
:10100000704700BF80B483B000AF4FF000037B6037
:101010004FF000033B604FF46053C4F202034FF4FF
:101020006052C4F20202126842F480321A604FF435
:101030006053C4F202031B6803F400333B607B6817
:1010400003F101037B603B68002B03D17B68B3F5A0
:10105000A06FECD14FF46053C4F202031B6803F499
:101060000033002B03D04FF001033B6002E04FF050
:1010700000033B603B68012B40F082804FF46053DB
:10108000C4F202034FF46052C4F20202126C42F046
:1010900080521A644FF4E043C4F200034FF4E0427C
:1010A000C4F20002126842F480421A604FF46053A6
:1010B000C4F202034FF46052C4F2020292689A60D2
:1010C0004FF46053C4F202034FF46052C4F20202C0
:1010D000926842F400429A604FF46053C4F20203F3
:1010E0004FF46052C4F20202926842F4A0529A6035
:1010F0004FF46053C4F2020343F23F02C0F2437262
:101100005A604FF46053C4F202034FF46052C4F2C9
:101110000202126842F080721A6000BF4FF46053FE
:10112000C4F202031B6803F00073002BF6D04FF4E7
:101130007053C4F2020340F205621A604FF4605328
:10114000C4F202034FF46052C4F20202926822F029
:1011500003029A604FF46053C4F202034FF46052EA
:10116000C4F20202926842F002029A6000BF4FF499
:101170006053C4F202039B6803F00C03082BF6D102
:1011800007F10C07BD4680BC704700BF80B485B036
:1011900000AF786039604FF00003FB607B681B682C
:1011A000FB60FA6848F23F03CFF21C031340FB6078
:1011B0003B681A683B68DB681A433B685B691A4303
:1011C0003B689B691A433B68DB691A433B681B6AAF
:1011D0001A433B685B6A1A433B689B6A1A433B6845
:1011E0005B6B1A433B689B6B1343FA681343FB60CA
:1011F0007B68FA681A607B685B69FB60FB6823F0B8
:101200000703FB603B68DA6A3B681B6B1343FA68B1
:101210001343FB607B68FA685A613B681A697B6814
:101220005A603B685A687B689A603B689A687B683A
:10123000DA6007F11407BD4680BC704780B483B004
:1012400000AF78600B46FB70FB78002B06D07B6804
:101250001B6843F001027B681A6005E07B681B682D
:1012600023F001027B681A6007F10C07BD4680BCC1
:10127000704700BF80B483B000AF78600B467B80BE
:101280007A887B685A6007F10C07BD4680BC7047BE
:1012900080B485B000AF78604FF00003FB737B68CB
:1012A0001B6803F00103002B03D04FF00103FB7315
:1012B00002E04FF00003FB73FB7B184607F11407B5
:1012C000BD4680BC704700BF80B487B000AF786077
:1012D00039604FF00003FB754FF00003FB607A6844
:1012E00046F20F43C4F202039A4205D84FF4C043BA
:1012F000C4F202033B6104E04FF4C843C4F20203AA
:101300003B613B6803F00053002B03D03B695B68F3
:10131000FB6002E03B691B68FB60FB6823F0F02385
:1013200023F08213FB60FA683B681340002B03D064
:101330004FF00103FB7502E04FF00003FB75FB7DEE
:10134000184607F11C07BD4680BC704780B485B0C5
:1013500000AF786039607A6846F20F43C4F2020346
:101360009A4205D84FF4C043C4F20203FB6004E084
:101370004FF4C843C4F20203FB603B6803F0005320
:10138000002B07D03B6823F0F02323F08213FA6888
:10139000D36006E03B6823F0F02323F08213FA6861
:1013A000936007F11407BD4680BC704780B485B0D8
:1013B00000AFF860B9601346FB71BB6803F08003AF
:1013C000002B0FD0FB79002B06D0FB685B6943F044
:1013D0008002FB685A6105E0FB685B6923F08002CC
:1013E000FB685A61BB68802B15D0FB79002B08D0B5
:1013F000FB681A68BB6803F01E031A43FB681A6097
:1014000009E0FB681A68BB6803F01E036FEA030378
:101410001A40FB681A6007F11407BD4680BC70478C
:1014200080B483B000AF7860396007F10C07BD4627
:1014300080BC704780B400AF4FF000031846BD4633
:1014400080BC704780B582B000AF78607A684FF496
:101450004053C4F201039A420CD14FF480504FF034
:101460000101FFF7F1F84FF480504FF00001FFF752
:10147000EBF826E07A684FF46053C4F200039A4216
:101480000CD14FF480404FF00101FFF7B3F84FF457
:1014900080404FF00001FFF7ADF812E07A684FF49A
:1014A0007053C4F200039A420BD14FF400404FF046
:1014B0000101FFF79FF84FF400404FF00001FFF7E4
:1014C00099F807F10807BD4680BD00BF80B485B01C
:1014D00000AF786039604FF00003FB817B681B88A8
:1014E000FB81FB8903F44153FB813B681A883B680D
:1014F0005B8813439AB23B689B8813439AB23B685C
:10150000DB8813439AB23B681B8913439AB23B684A
:101510005B8913439AB23B689B8913439AB23B6839
:10152000DB8913439AB2FB891343FB817B68FA89F9
:101530001A807B689B8B9BB223F400639AB27B6812
:101540009A833B681A8A7B681A8207F11407BD46A2
:1015500080BC704780B483B000AF78600B46FB70EE
:10156000FB78002B08D07B681B889BB243F04003BC
:101570009AB27B681A8007E07B681B889BB223F0D5
:1015800040039AB27B681A8007F10C07BD4680BC05
:10159000704700BF80B483B000AF78600B467B809B
:1015A0007B687A889A8107F10C07BD4680BC70473A
:1015B00080B483B000AF786013460A467A807B70AF
:1015C0007B78002B08D07B689B889AB27B8813437A
:1015D0009AB27B689A800AE07B689B889AB27B8883
:1015E0006FEA03039BB213409AB27B689A8007F1BB
:1015F0000C07BD4680BC704780B485B000AF7860F2
:101600000B467B804FF00003FB737B681B899AB20B
:101610007B8813409BB2002B03D04FF00103FB7378
:1016200002E04FF00003FB73FB7B184607F1140741
:10163000BD4680BC704700BF80B485B000AF786005
:101640004FF00003FB734FF00003BB734FF00F0329
:101650007B737B68DB78002B45D04FF46D43CEF273
:101660000003DB686FEA030303F4E0634FEA13232C
:10167000FB73FB7BC3F10403BB737A7BFB7B42FAF6
:1016800003F37B737B685B781A46BB7B02FA03F338
:10169000FB737B689A787B7B1340DAB2FB7B134346
:1016A000FB73FB7B4FEA0313FB734FF46143CEF2F2
:1016B00000037A6812789B18FA7B83F800234FF4B2
:1016C0006143CEF200037A6812784FEA5212D2B226
:1016D0007968097801F01F014FF0010000FA01F16B
:1016E00043F8221014E04FF46143CEF200037A680D
:1016F00012784FEA5212D2B27968097801F01F01CC
:101700004FF0010000FA01F102F1200243F822102B
:1017100007F11407BD4680BC704700BF80B485B098
:1017200000AF786039604FF00003FB817B681B8855
:10173000FB817A684FF00003C4F201039A421FD084
:101740007A684FF48063C4F201039A4218D07B6830
:10175000B3F1804F14D07A684FF48063C4F2000371
:101760009A420DD07A684FF40063C4F200039A42A3
:1017700006D07A684FF44063C4F200039A4208D15D
:10178000FB8923F07003FB813B685A88FB89134374
:10179000FB817A684FF48053C4F200039A420FD061
:1017A0007A684FF4A053C4F200039A4208D0FB8930
:1017B00023F44073FB813B681A89FB891343FB8147
:1017C0007B68FA891A803B685A687B68DA623B68F2
:1017D0001A887B681A857A684FF00003C4F2010307
:1017E0009A4206D07A684FF48063C4F201039A42A9
:1017F00004D13B689B7A1A467B681A867B684FF057
:1018000001029A8207F11407BD4680BC704700BFF1
:1018100080B483B000AF78600B46FB70FB78002B80
:1018200008D07B681B889BB243F001039AB27B68A7
:101830001A8007E07B681B889BB223F001039AB2F1
:101840007B681A8007F10C07BD4680BC704700BF5B
:1018500080B483B000AF786013460A467A807B700C
:101860007B78002B08D07B689B899AB27B881343D6
:101870009AB27B689A810AE07B689B899AB27B88DE
:101880006FEA03039BB213409AB27B689A8107F117
:101890000C07BD4680BC704780B483B000AF786051
:1018A0000B467B807B886FEA03039AB27B681A82BF
:0C18B00007F10C07BD4680BC704700BF6C
:1018BC00FFFF0000FFFF000000C01200010000004D
:1018CC0000002000B86002400C3C00402F000000DB
:1018DC00000000280000002400004020000000222E
:1018EC0000000021007A030A000000000000000044
:0818FC000102030406070809BC
:0400000508000000EF
:00000001FF
